{
  "_format": "hh-sol-artifact-1",
  "contractName": "eventManagement",
  "sourceName": "contracts/EventManagement.sol",
  "abi": [
    {
      "anonymous": false,
      "inputs": [
        {
          "indexed": false,
          "internalType": "string",
          "name": "",
          "type": "string"
        },
        {
          "components": [
            {
              "internalType": "address payable",
              "name": "organiser",
              "type": "address"
            },
            {
              "internalType": "string",
              "name": "name",
              "type": "string"
            },
            {
              "internalType": "uint256",
              "name": "date",
              "type": "uint256"
            },
            {
              "internalType": "uint256",
              "name": "price",
              "type": "uint256"
            },
            {
              "internalType": "uint256",
              "name": "totalTicket",
              "type": "uint256"
            },
            {
              "internalType": "uint256",
              "name": "ticketAvailable",
              "type": "uint256"
            }
          ],
          "indexed": false,
          "internalType": "struct eventManagement.Event",
          "name": "",
          "type": "tuple"
        }
      ],
      "name": "valueAdded",
      "type": "event"
    },
    {
      "inputs": [
        {
          "internalType": "string",
          "name": "_name",
          "type": "string"
        },
        {
          "internalType": "uint256",
          "name": "_quantity",
          "type": "uint256"
        }
      ],
      "name": "buyTickets",
      "outputs": [],
      "stateMutability": "payable",
      "type": "function"
    },
    {
      "inputs": [
        {
          "internalType": "string",
          "name": "_name",
          "type": "string"
        },
        {
          "internalType": "uint256",
          "name": "_date",
          "type": "uint256"
        },
        {
          "internalType": "uint256",
          "name": "_price",
          "type": "uint256"
        },
        {
          "internalType": "uint256",
          "name": "_totalTicket",
          "type": "uint256"
        }
      ],
      "name": "createEvent",
      "outputs": [],
      "stateMutability": "nonpayable",
      "type": "function"
    },
    {
      "inputs": [
        {
          "internalType": "string",
          "name": "",
          "type": "string"
        }
      ],
      "name": "events",
      "outputs": [
        {
          "internalType": "address payable",
          "name": "organiser",
          "type": "address"
        },
        {
          "internalType": "string",
          "name": "name",
          "type": "string"
        },
        {
          "internalType": "uint256",
          "name": "date",
          "type": "uint256"
        },
        {
          "internalType": "uint256",
          "name": "price",
          "type": "uint256"
        },
        {
          "internalType": "uint256",
          "name": "totalTicket",
          "type": "uint256"
        },
        {
          "internalType": "uint256",
          "name": "ticketAvailable",
          "type": "uint256"
        }
      ],
      "stateMutability": "view",
      "type": "function"
    },
    {
      "inputs": [
        {
          "internalType": "address",
          "name": "_user",
          "type": "address"
        }
      ],
      "name": "showUserData",
      "outputs": [
        {
          "components": [
            {
              "internalType": "string",
              "name": "showname",
              "type": "string"
            },
            {
              "internalType": "uint256",
              "name": "totalTicket",
              "type": "uint256"
            },
            {
              "internalType": "uint256",
              "name": "purchasedOn",
              "type": "uint256"
            },
            {
              "internalType": "uint256",
              "name": "EventOn",
              "type": "uint256"
            }
          ],
          "internalType": "struct eventManagement.Userdata[]",
          "name": "",
          "type": "tuple[]"
        }
      ],
      "stateMutability": "view",
      "type": "function"
    },
    {
      "inputs": [
        {
          "internalType": "string",
          "name": "_name",
          "type": "string"
        },
        {
          "internalType": "uint256",
          "name": "_quantity",
          "type": "uint256"
        },
        {
          "internalType": "address",
          "name": "_to",
          "type": "address"
        }
      ],
      "name": "transferTickets",
      "outputs": [],
      "stateMutability": "nonpayable",
      "type": "function"
    }
  ],
  "bytecode": "0x608060405234801561001057600080fd5b506123d2806100206000396000f3fe60806040526004361061004a5760003560e01c80630374ab0b1461004f5780639673d6a314610078578063cd11d3fe146100ba578063eaae8562146100d6578063f03dd2fd146100ff575b600080fd5b34801561005b57600080fd5b50610076600480360381019061007191906112c2565b61013c565b005b34801561008457600080fd5b5061009f600480360381019061009a9190611345565b610306565b6040516100b19695949392919061145d565b60405180910390f35b6100d460048036038101906100cf91906114c5565b610400565b005b3480156100e257600080fd5b506100fd60048036038101906100f8919061155f565b6107d9565b005b34801561010b57600080fd5b50610126600480360381019061012191906115ce565b610f5f565b6040516101339190611779565b60405180910390f35b42831161017e576040517f08c379a0000000000000000000000000000000000000000000000000000000008152600401610175906117e7565b60405180910390fd5b600081116101c1576040517f08c379a00000000000000000000000000000000000000000000000000000000081526004016101b890611853565b60405180910390fd5b6040518060c001604052803373ffffffffffffffffffffffffffffffffffffffff1681526020018581526020018481526020018381526020018281526020018281525060008560405161021491906118af565b908152602001604051809103902060008201518160000160006101000a81548173ffffffffffffffffffffffffffffffffffffffff021916908373ffffffffffffffffffffffffffffffffffffffff160217905550602082015181600101908161027e9190611ad2565b5060408201518160020155606082015181600301556080820151816004015560a082015181600501559050507f206aa50b9b4f8d9efb3e9d4de5393817290c09df7348f5fe869e43556f41b7ef846000866040516102dc91906118af565b90815260200160405180910390206040516102f8929190611d63565b60405180910390a150505050565b6000818051602081018201805184825260208301602085012081835280955050505050506000915090508060000160009054906101000a900473ffffffffffffffffffffffffffffffffffffffff1690806001018054610365906118f5565b80601f0160208091040260200160405190810160405280929190818152602001828054610391906118f5565b80156103de5780601f106103b3576101008083540402835291602001916103de565b820191906000526020600020905b8154815290600101906020018083116103c157829003601f168201915b5050505050908060020154908060030154908060040154908060050154905086565b818160008260405161041291906118af565b908152602001604051809103902060000160009054906101000a900473ffffffffffffffffffffffffffffffffffffffff1673ffffffffffffffffffffffffffffffffffffffff163373ffffffffffffffffffffffffffffffffffffffff16036104b1576040517f08c379a00000000000000000000000000000000000000000000000000000000081526004016104a890611de6565b60405180910390fd5b600080836040516104c291906118af565b90815260200160405180910390206002015403610514576040517f08c379a000000000000000000000000000000000000000000000000000000000815260040161050b90611e52565b60405180910390fd5b4260008360405161052591906118af565b9081526020016040518091039020600201541015610578576040517f08c379a000000000000000000000000000000000000000000000000000000000815260040161056f90611ebe565b60405180910390fd5b8060008360405161058991906118af565b9081526020016040518091039020600301546105a59190611f0d565b3410156105e7576040517f08c379a00000000000000000000000000000000000000000000000000000000081526004016105de90611f9b565b60405180910390fd5b806000836040516105f891906118af565b908152602001604051809103902060050154101561064b576040517f08c379a000000000000000000000000000000000000000000000000000000000815260040161064290612007565b60405180910390fd5b6000808560405161065c91906118af565b90815260200160405180910390209050838160050160008282546106809190612027565b92505081905550600160003373ffffffffffffffffffffffffffffffffffffffff1673ffffffffffffffffffffffffffffffffffffffff16815260200190815260200160002060405180608001604052808781526020018681526020014281526020016000886040516106f391906118af565b908152602001604051809103902060020154815250908060018154018082558091505060019003906000526020600020906004020160009091909190915060008201518160000190816107469190611ad2565b5060208201518160010155604082015181600201556060820151816003015550508060000160009054906101000a900473ffffffffffffffffffffffffffffffffffffffff1673ffffffffffffffffffffffffffffffffffffffff166108fc349081150290604051600060405180830381858888f193505050501580156107d1573d6000803e3d6000fd5b505050505050565b6000836040516107e991906118af565b908152602001604051809103902060000160009054906101000a900473ffffffffffffffffffffffffffffffffffffffff1673ffffffffffffffffffffffffffffffffffffffff163373ffffffffffffffffffffffffffffffffffffffff1603610888576040517f08c379a000000000000000000000000000000000000000000000000000000000815260040161087f906120a7565b60405180910390fd5b6000808460405161089991906118af565b908152602001604051809103902060020154036108eb576040517f08c379a00000000000000000000000000000000000000000000000000000000081526004016108e290611e52565b60405180910390fd5b426000846040516108fc91906118af565b908152602001604051809103902060020154101561094f576040517f08c379a000000000000000000000000000000000000000000000000000000000815260040161094690611ebe565b60405180910390fd5b8073ffffffffffffffffffffffffffffffffffffffff163373ffffffffffffffffffffffffffffffffffffffff16036109bd576040517f08c379a00000000000000000000000000000000000000000000000000000000081526004016109b490612139565b60405180910390fd5b6000805b600160003373ffffffffffffffffffffffffffffffffffffffff1673ffffffffffffffffffffffffffffffffffffffff16815260200190815260200160002080549050811015610ad65784604051602001610a1c91906118af565b60405160208183030381529060405280519060200120600160003373ffffffffffffffffffffffffffffffffffffffff1673ffffffffffffffffffffffffffffffffffffffff1681526020019081526020016000208281548110610a8357610a82612159565b5b9060005260206000209060040201600001604051602001610aa4919061220b565b6040516020818303038152906040528051906020012003610ac3578091505b8080610ace90612222565b9150506109c1565b5082600160003373ffffffffffffffffffffffffffffffffffffffff1673ffffffffffffffffffffffffffffffffffffffff1681526020019081526020016000208281548110610b2957610b28612159565b5b9060005260206000209060040201600101541015610b7c576040517f08c379a0000000000000000000000000000000000000000000000000000000008152600401610b73906122b6565b60405180910390fd5b82600160003373ffffffffffffffffffffffffffffffffffffffff1673ffffffffffffffffffffffffffffffffffffffff1681526020019081526020016000208281548110610bce57610bcd612159565b5b90600052602060002090600402016001016000828254610bee9190612027565b92505081905550600080600160008573ffffffffffffffffffffffffffffffffffffffff1673ffffffffffffffffffffffffffffffffffffffff1681526020019081526020016000208054905090506000811115610e6e5760005b600160008673ffffffffffffffffffffffffffffffffffffffff1673ffffffffffffffffffffffffffffffffffffffff16815260200190815260200160002080549050811015610e6c576000600160008773ffffffffffffffffffffffffffffffffffffffff1673ffffffffffffffffffffffffffffffffffffffff1681526020019081526020016000208281548110610ce657610ce5612159565b5b90600052602060002090600402016000018054610d02906118f5565b80601f0160208091040260200160405190810160405280929190818152602001828054610d2e906118f5565b8015610d7b5780601f10610d5057610100808354040283529160200191610d7b565b820191906000526020600020905b815481529060010190602001808311610d5e57829003601f168201915b5050505050905087604051602001610d9391906118af565b6040516020818303038152906040528051906020012081604051602001610dba91906118af565b6040516020818303038152906040528051906020012003610e58576001935086600160008873ffffffffffffffffffffffffffffffffffffffff1673ffffffffffffffffffffffffffffffffffffffff1681526020019081526020016000208381548110610e2b57610e2a612159565b5b90600052602060002090600402016001016000828254610e4b91906122d6565b9250508190555050610e6c565b508080610e6490612222565b915050610c49565b505b60008203610f5757600160008573ffffffffffffffffffffffffffffffffffffffff1673ffffffffffffffffffffffffffffffffffffffff1681526020019081526020016000206040518060800160405280888152602001878152602001428152602001600089604051610ee291906118af565b90815260200160405180910390206002015481525090806001815401808255809150506001900390600052602060002090600402016000909190919091506000820151816000019081610f359190611ad2565b5060208201518160010155604082015181600201556060820151816003015550505b505050505050565b60606000600160008473ffffffffffffffffffffffffffffffffffffffff1673ffffffffffffffffffffffffffffffffffffffff1681526020019081526020016000208054905011610fe6576040517f08c379a0000000000000000000000000000000000000000000000000000000008152600401610fdd9061237c565b60405180910390fd5b600160008373ffffffffffffffffffffffffffffffffffffffff1673ffffffffffffffffffffffffffffffffffffffff168152602001908152602001600020805480602002602001604051908101604052809291908181526020016000905b828210156111275783829060005260206000209060040201604051806080016040529081600082018054611078906118f5565b80601f01602080910402602001604051908101604052809291908181526020018280546110a4906118f5565b80156110f15780601f106110c6576101008083540402835291602001916110f1565b820191906000526020600020905b8154815290600101906020018083116110d457829003601f168201915b50505050508152602001600182015481526020016002820154815260200160038201548152505081526020019060010190611045565b505050509050919050565b6000604051905090565b600080fd5b600080fd5b600080fd5b600080fd5b6000601f19601f8301169050919050565b7f4e487b7100000000000000000000000000000000000000000000000000000000600052604160045260246000fd5b61119982611150565b810181811067ffffffffffffffff821117156111b8576111b7611161565b5b80604052505050565b60006111cb611132565b90506111d78282611190565b919050565b600067ffffffffffffffff8211156111f7576111f6611161565b5b61120082611150565b9050602081019050919050565b82818337600083830152505050565b600061122f61122a846111dc565b6111c1565b90508281526020810184848401111561124b5761124a61114b565b5b61125684828561120d565b509392505050565b600082601f83011261127357611272611146565b5b813561128384826020860161121c565b91505092915050565b6000819050919050565b61129f8161128c565b81146112aa57600080fd5b50565b6000813590506112bc81611296565b92915050565b600080600080608085870312156112dc576112db61113c565b5b600085013567ffffffffffffffff8111156112fa576112f9611141565b5b6113068782880161125e565b9450506020611317878288016112ad565b9350506040611328878288016112ad565b9250506060611339878288016112ad565b91505092959194509250565b60006020828403121561135b5761135a61113c565b5b600082013567ffffffffffffffff81111561137957611378611141565b5b6113858482850161125e565b91505092915050565b600073ffffffffffffffffffffffffffffffffffffffff82169050919050565b60006113b98261138e565b9050919050565b6113c9816113ae565b82525050565b600081519050919050565b600082825260208201905092915050565b60005b838110156114095780820151818401526020810190506113ee565b60008484015250505050565b6000611420826113cf565b61142a81856113da565b935061143a8185602086016113eb565b61144381611150565b840191505092915050565b6114578161128c565b82525050565b600060c08201905061147260008301896113c0565b81810360208301526114848188611415565b9050611493604083018761144e565b6114a0606083018661144e565b6114ad608083018561144e565b6114ba60a083018461144e565b979650505050505050565b600080604083850312156114dc576114db61113c565b5b600083013567ffffffffffffffff8111156114fa576114f9611141565b5b6115068582860161125e565b9250506020611517858286016112ad565b9150509250929050565b600061152c8261138e565b9050919050565b61153c81611521565b811461154757600080fd5b50565b60008135905061155981611533565b92915050565b6000806000606084860312156115785761157761113c565b5b600084013567ffffffffffffffff81111561159657611595611141565b5b6115a28682870161125e565b93505060206115b3868287016112ad565b92505060406115c48682870161154a565b9150509250925092565b6000602082840312156115e4576115e361113c565b5b60006115f28482850161154a565b91505092915050565b600081519050919050565b600082825260208201905092915050565b6000819050602082019050919050565b600082825260208201905092915050565b6000611643826113cf565b61164d8185611627565b935061165d8185602086016113eb565b61166681611150565b840191505092915050565b61167a8161128c565b82525050565b6000608083016000830151848203600086015261169d8282611638565b91505060208301516116b26020860182611671565b5060408301516116c56040860182611671565b5060608301516116d86060860182611671565b508091505092915050565b60006116ef8383611680565b905092915050565b6000602082019050919050565b600061170f826115fb565b6117198185611606565b93508360208202850161172b85611617565b8060005b85811015611767578484038952815161174885826116e3565b9450611753836116f7565b925060208a0199505060018101905061172f565b50829750879550505050505092915050565b600060208201905081810360008301526117938184611704565b905092915050565b7f596f752063616e206f7267616e697365206576656e7420696e20667574757265600082015250565b60006117d16020836113da565b91506117dc8261179b565b602082019050919050565b60006020820190508181036000830152611800816117c4565b9050919050565b7f706c6561736520617661696c61626c65207469636b6574730000000000000000600082015250565b600061183d6018836113da565b915061184882611807565b602082019050919050565b6000602082019050818103600083015261186c81611830565b9050919050565b600081905092915050565b6000611889826113cf565b6118938185611873565b93506118a38185602086016113eb565b80840191505092915050565b60006118bb828461187e565b915081905092915050565b7f4e487b7100000000000000000000000000000000000000000000000000000000600052602260045260246000fd5b6000600282049050600182168061190d57607f821691505b6020821081036119205761191f6118c6565b5b50919050565b60008190508160005260206000209050919050565b60006020601f8301049050919050565b600082821b905092915050565b6000600883026119887fffffffffffffffffffffffffffffffffffffffffffffffffffffffffffffffff8261194b565b611992868361194b565b95508019841693508086168417925050509392505050565b6000819050919050565b60006119cf6119ca6119c58461128c565b6119aa565b61128c565b9050919050565b6000819050919050565b6119e9836119b4565b6119fd6119f5826119d6565b848454611958565b825550505050565b600090565b611a12611a05565b611a1d8184846119e0565b505050565b5b81811015611a4157611a36600082611a0a565b600181019050611a23565b5050565b601f821115611a8657611a5781611926565b611a608461193b565b81016020851015611a6f578190505b611a83611a7b8561193b565b830182611a22565b50505b505050565b600082821c905092915050565b6000611aa960001984600802611a8b565b1980831691505092915050565b6000611ac28383611a98565b9150826002028217905092915050565b611adb826113cf565b67ffffffffffffffff811115611af457611af3611161565b5b611afe82546118f5565b611b09828285611a45565b600060209050601f831160018114611b3c5760008415611b2a578287015190505b611b348582611ab6565b865550611b9c565b601f198416611b4a86611926565b60005b82811015611b7257848901518255600182019150602085019450602081019050611b4d565b86831015611b8f5784890151611b8b601f891682611a98565b8355505b6001600288020188555050505b505050505050565b60008160001c9050919050565b600073ffffffffffffffffffffffffffffffffffffffff82169050919050565b6000611be4611bdf83611ba4565b611bb1565b9050919050565b611bf4816113ae565b82525050565b60008154611c07816118f5565b611c118186611627565b94506001821660008114611c2c5760018114611c4257611c75565b60ff198316865281151560200286019350611c75565b611c4b85611926565b60005b83811015611c6d57815481890152600182019150602081019050611c4e565b808801955050505b50505092915050565b6000819050919050565b6000611c9b611c9683611ba4565b611c7e565b9050919050565b600060c083016000808401549050611cb981611bd1565b611cc66000870182611beb565b50600184018583036020870152611cdd8382611bfa565b92505060028401549050611cf081611c88565b611cfd6040870182611671565b5060038401549050611d0e81611c88565b611d1b6060870182611671565b5060048401549050611d2c81611c88565b611d396080870182611671565b5060058401549050611d4a81611c88565b611d5760a0870182611671565b50819250505092915050565b60006040820190508181036000830152611d7d8185611415565b90508181036020830152611d918184611ca2565b90509392505050565b7f4f7267616e697365722063616e6e6f7420627579207469636b65747300000000600082015250565b6000611dd0601c836113da565b9150611ddb82611d9a565b602082019050919050565b60006020820190508181036000830152611dff81611dc3565b9050919050565b7f6e6f2073756368206576656e7400000000000000000000000000000000000000600082015250565b6000611e3c600d836113da565b9150611e4782611e06565b602082019050919050565b60006020820190508181036000830152611e6b81611e2f565b9050919050565b7f6576656e7420636c6f7365640000000000000000000000000000000000000000600082015250565b6000611ea8600c836113da565b9150611eb382611e72565b602082019050919050565b60006020820190508181036000830152611ed781611e9b565b9050919050565b7f4e487b7100000000000000000000000000000000000000000000000000000000600052601160045260246000fd5b6000611f188261128c565b9150611f238361128c565b9250828202611f318161128c565b91508282048414831517611f4857611f47611ede565b5b5092915050565b7f706c656173652070617920737566666963656e7420616d6f756e740000000000600082015250565b6000611f85601b836113da565b9150611f9082611f4f565b602082019050919050565b60006020820190508181036000830152611fb481611f78565b9050919050565b7f6e6f7420656e6f756768207469636b6574730000000000000000000000000000600082015250565b6000611ff16012836113da565b9150611ffc82611fbb565b602082019050919050565b6000602082019050818103600083015261202081611fe4565b9050919050565b60006120328261128c565b915061203d8361128c565b925082820390508181111561205557612054611ede565b5b92915050565b7f4f7267616e697365722063616e6e6f74207472616e7366657200000000000000600082015250565b60006120916019836113da565b915061209c8261205b565b602082019050919050565b600060208201905081810360008301526120c081612084565b9050919050565b7f796f752063616e27742073656e64207469636b657420746f20796f757273656c60008201527f6600000000000000000000000000000000000000000000000000000000000000602082015250565b60006121236021836113da565b915061212e826120c7565b604082019050919050565b6000602082019050818103600083015261215281612116565b9050919050565b7f4e487b7100000000000000000000000000000000000000000000000000000000600052603260045260246000fd5b60008154612195816118f5565b61219f8186611873565b945060018216600081146121ba57600181146121cf57612202565b60ff1983168652811515820286019350612202565b6121d885611926565b60005b838110156121fa578154818901526001820191506020810190506121db565b838801955050505b50505092915050565b60006122178284612188565b915081905092915050565b600061222d8261128c565b91507fffffffffffffffffffffffffffffffffffffffffffffffffffffffffffffffff820361225f5761225e611ede565b5b600182019050919050565b7f6e6f74206861766520656e6f756768207469636b657473000000000000000000600082015250565b60006122a06017836113da565b91506122ab8261226a565b602082019050919050565b600060208201905081810360008301526122cf81612293565b9050919050565b60006122e18261128c565b91506122ec8361128c565b925082820190508082111561230457612303611ede565b5b92915050565b7f506c6561736520656e746572207468652061646472657373207468617420796f60008201527f752068617665207573656420666f7220627579696e67207469636b6574730000602082015250565b6000612366603e836113da565b91506123718261230a565b604082019050919050565b6000602082019050818103600083015261239581612359565b905091905056fea2646970667358221220ead9ac743ef35ce5262fd09b4bf997f5eea91bf431369c8b69317175ec4da06564736f6c63430008110033",
  "linkReferences": {},
  "deployedLinkReferences": {}
}